{
  "contractName": "StakingRewards",
  "abi": [
    {
      "inputs": [
        {
          "internalType": "contract PTOKEN",
          "name": "_stakingToken",
          "type": "address"
        },
        {
          "internalType": "contract RewardPawan",
          "name": "_rewardsToken",
          "type": "address"
        }
      ],
      "stateMutability": "nonpayable",
      "type": "constructor"
    },
    {
      "inputs": [],
      "name": "lastUpdateTime",
      "outputs": [
        {
          "internalType": "uint256",
          "name": "",
          "type": "uint256"
        }
      ],
      "stateMutability": "view",
      "type": "function"
    },
    {
      "inputs": [],
      "name": "rewardPerTokenStored",
      "outputs": [
        {
          "internalType": "uint256",
          "name": "",
          "type": "uint256"
        }
      ],
      "stateMutability": "view",
      "type": "function"
    },
    {
      "inputs": [],
      "name": "rewardRate",
      "outputs": [
        {
          "internalType": "uint256",
          "name": "",
          "type": "uint256"
        }
      ],
      "stateMutability": "view",
      "type": "function"
    },
    {
      "inputs": [
        {
          "internalType": "address",
          "name": "",
          "type": "address"
        }
      ],
      "name": "rewards",
      "outputs": [
        {
          "internalType": "uint256",
          "name": "",
          "type": "uint256"
        }
      ],
      "stateMutability": "view",
      "type": "function"
    },
    {
      "inputs": [],
      "name": "rewardsToken",
      "outputs": [
        {
          "internalType": "contract RewardPawan",
          "name": "",
          "type": "address"
        }
      ],
      "stateMutability": "view",
      "type": "function"
    },
    {
      "inputs": [],
      "name": "stakingToken",
      "outputs": [
        {
          "internalType": "contract PTOKEN",
          "name": "",
          "type": "address"
        }
      ],
      "stateMutability": "view",
      "type": "function"
    },
    {
      "inputs": [
        {
          "internalType": "address",
          "name": "",
          "type": "address"
        }
      ],
      "name": "userRewardPerTokenPaid",
      "outputs": [
        {
          "internalType": "uint256",
          "name": "",
          "type": "uint256"
        }
      ],
      "stateMutability": "view",
      "type": "function"
    },
    {
      "inputs": [],
      "name": "rewardPerToken",
      "outputs": [
        {
          "internalType": "uint256",
          "name": "",
          "type": "uint256"
        }
      ],
      "stateMutability": "view",
      "type": "function"
    },
    {
      "inputs": [
        {
          "internalType": "address",
          "name": "account",
          "type": "address"
        }
      ],
      "name": "earned",
      "outputs": [
        {
          "internalType": "uint256",
          "name": "",
          "type": "uint256"
        }
      ],
      "stateMutability": "view",
      "type": "function"
    },
    {
      "inputs": [
        {
          "internalType": "uint256",
          "name": "_amount",
          "type": "uint256"
        }
      ],
      "name": "stake",
      "outputs": [],
      "stateMutability": "nonpayable",
      "type": "function"
    },
    {
      "inputs": [
        {
          "internalType": "uint256",
          "name": "_amount",
          "type": "uint256"
        }
      ],
      "name": "withdraw",
      "outputs": [],
      "stateMutability": "nonpayable",
      "type": "function"
    },
    {
      "inputs": [],
      "name": "getReward",
      "outputs": [],
      "stateMutability": "payable",
      "type": "function"
    }
  ],
  "bytecode": "0x608060405260646002553480156200001657600080fd5b506040516200112b3803806200112b83398181016040528101906200003c919062000188565b816000806101000a81548173ffffffffffffffffffffffffffffffffffffffff021916908373ffffffffffffffffffffffffffffffffffffffff16021790555080600160006101000a81548173ffffffffffffffffffffffffffffffffffffffff021916908373ffffffffffffffffffffffffffffffffffffffff1602179055505050620001cf565b600080fd5b600073ffffffffffffffffffffffffffffffffffffffff82169050919050565b6000620000f782620000ca565b9050919050565b60006200010b82620000ea565b9050919050565b6200011d81620000fe565b81146200012957600080fd5b50565b6000815190506200013d8162000112565b92915050565b60006200015082620000ea565b9050919050565b620001628162000143565b81146200016e57600080fd5b50565b600081519050620001828162000157565b92915050565b60008060408385031215620001a257620001a1620000c5565b5b6000620001b2858286016200012c565b9250506020620001c58582860162000171565b9150509250929050565b610f4c80620001df6000396000f3fe6080604052600436106100a65760003560e01c80638b876347116100645780638b876347146101ae578063a694fc3a146101eb578063c8f33c9114610214578063cd3daf9d1461023f578063d1af0c7d1461026a578063df136d6514610295576100a6565b80628cc262146100ab5780630700037d146100e85780632e1a7d4d146101255780633d18b9121461014e57806372f702f3146101585780637b0a47ee14610183575b600080fd5b3480156100b757600080fd5b506100d260048036038101906100cd9190610ae2565b6102c0565b6040516100df9190610b28565b60405180910390f35b3480156100f457600080fd5b5061010f600480360381019061010a9190610ae2565b6103c2565b60405161011c9190610b28565b60405180910390f35b34801561013157600080fd5b5061014c60048036038101906101479190610b6f565b6103da565b005b610156610594565b005b34801561016457600080fd5b5061016d61076a565b60405161017a9190610bfb565b60405180910390f35b34801561018f57600080fd5b5061019861078e565b6040516101a59190610b28565b60405180910390f35b3480156101ba57600080fd5b506101d560048036038101906101d09190610ae2565b610794565b6040516101e29190610b28565b60405180910390f35b3480156101f757600080fd5b50610212600480360381019061020d9190610b6f565b6107ac565b005b34801561022057600080fd5b506102296109e9565b6040516102369190610b28565b60405180910390f35b34801561024b57600080fd5b506102546109ef565b6040516102619190610b28565b60405180910390f35b34801561027657600080fd5b5061027f610a53565b60405161028c9190610c37565b60405180910390f35b3480156102a157600080fd5b506102aa610a79565b6040516102b79190610b28565b60405180910390f35b6000600660008373ffffffffffffffffffffffffffffffffffffffff1673ffffffffffffffffffffffffffffffffffffffff16815260200190815260200160002054670de0b6b3a7640000600560008573ffffffffffffffffffffffffffffffffffffffff1673ffffffffffffffffffffffffffffffffffffffff168152602001908152602001600020546103536109ef565b61035d9190610c81565b600860008673ffffffffffffffffffffffffffffffffffffffff1673ffffffffffffffffffffffffffffffffffffffff168152602001908152602001600020546103a79190610cb5565b6103b19190610d3e565b6103bb9190610d6f565b9050919050565b60066020528060005260406000206000915090505481565b336103e36109ef565b600481905550426003819055506103f9816102c0565b600660008373ffffffffffffffffffffffffffffffffffffffff1673ffffffffffffffffffffffffffffffffffffffff16815260200190815260200160002081905550600454600560008373ffffffffffffffffffffffffffffffffffffffff1673ffffffffffffffffffffffffffffffffffffffff1681526020019081526020016000208190555081600760008282546104949190610c81565b9250508190555081600860003373ffffffffffffffffffffffffffffffffffffffff1673ffffffffffffffffffffffffffffffffffffffff16815260200190815260200160002060008282546104ea9190610c81565b9250508190555060008054906101000a900473ffffffffffffffffffffffffffffffffffffffff1673ffffffffffffffffffffffffffffffffffffffff1663a9059cbb33846040518363ffffffff1660e01b815260040161054c929190610dd4565b6020604051808303816000875af115801561056b573d6000803e3d6000fd5b505050506040513d601f19601f8201168201806040525081019061058f9190610e35565b505050565b3361059d6109ef565b600481905550426003819055506105b3816102c0565b600660008373ffffffffffffffffffffffffffffffffffffffff1673ffffffffffffffffffffffffffffffffffffffff16815260200190815260200160002081905550600454600560008373ffffffffffffffffffffffffffffffffffffffff1673ffffffffffffffffffffffffffffffffffffffff168152602001908152602001600020819055506000600660003373ffffffffffffffffffffffffffffffffffffffff1673ffffffffffffffffffffffffffffffffffffffff1681526020019081526020016000205490506000600660003373ffffffffffffffffffffffffffffffffffffffff1673ffffffffffffffffffffffffffffffffffffffff16815260200190815260200160002081905550600160009054906101000a900473ffffffffffffffffffffffffffffffffffffffff1673ffffffffffffffffffffffffffffffffffffffff1663a9059cbb33836040518363ffffffff1660e01b8152600401610722929190610dd4565b6020604051808303816000875af1158015610741573d6000803e3d6000fd5b505050506040513d601f19601f820116820180604052508101906107659190610e35565b505050565b60008054906101000a900473ffffffffffffffffffffffffffffffffffffffff1681565b60025481565b60056020528060005260406000206000915090505481565b336107b56109ef565b600481905550426003819055506107cb816102c0565b600660008373ffffffffffffffffffffffffffffffffffffffff1673ffffffffffffffffffffffffffffffffffffffff16815260200190815260200160002081905550600454600560008373ffffffffffffffffffffffffffffffffffffffff1673ffffffffffffffffffffffffffffffffffffffff1681526020019081526020016000208190555081600860003373ffffffffffffffffffffffffffffffffffffffff1673ffffffffffffffffffffffffffffffffffffffff16815260200190815260200160002054116108d5576040517f08c379a00000000000000000000000000000000000000000000000000000000081526004016108cc90610ebf565b60405180910390fd5b81600760008282546108e79190610d6f565b9250508190555081600860003373ffffffffffffffffffffffffffffffffffffffff1673ffffffffffffffffffffffffffffffffffffffff168152602001908152602001600020600082825461093d9190610d6f565b9250508190555060008054906101000a900473ffffffffffffffffffffffffffffffffffffffff1673ffffffffffffffffffffffffffffffffffffffff166323b872dd3330856040518463ffffffff1660e01b81526004016109a193929190610edf565b6020604051808303816000875af11580156109c0573d6000803e3d6000fd5b505050506040513d601f19601f820116820180604052508101906109e49190610e35565b505050565b60035481565b6000806007541415610a05576004549050610a50565b600754670de0b6b3a764000060025460035442610a229190610c81565b610a2c9190610cb5565b610a369190610cb5565b610a409190610d3e565b600454610a4d9190610d6f565b90505b90565b600160009054906101000a900473ffffffffffffffffffffffffffffffffffffffff1681565b60045481565b600080fd5b600073ffffffffffffffffffffffffffffffffffffffff82169050919050565b6000610aaf82610a84565b9050919050565b610abf81610aa4565b8114610aca57600080fd5b50565b600081359050610adc81610ab6565b92915050565b600060208284031215610af857610af7610a7f565b5b6000610b0684828501610acd565b91505092915050565b6000819050919050565b610b2281610b0f565b82525050565b6000602082019050610b3d6000830184610b19565b92915050565b610b4c81610b0f565b8114610b5757600080fd5b50565b600081359050610b6981610b43565b92915050565b600060208284031215610b8557610b84610a7f565b5b6000610b9384828501610b5a565b91505092915050565b6000819050919050565b6000610bc1610bbc610bb784610a84565b610b9c565b610a84565b9050919050565b6000610bd382610ba6565b9050919050565b6000610be582610bc8565b9050919050565b610bf581610bda565b82525050565b6000602082019050610c106000830184610bec565b92915050565b6000610c2182610bc8565b9050919050565b610c3181610c16565b82525050565b6000602082019050610c4c6000830184610c28565b92915050565b7f4e487b7100000000000000000000000000000000000000000000000000000000600052601160045260246000fd5b6000610c8c82610b0f565b9150610c9783610b0f565b925082821015610caa57610ca9610c52565b5b828203905092915050565b6000610cc082610b0f565b9150610ccb83610b0f565b9250817fffffffffffffffffffffffffffffffffffffffffffffffffffffffffffffffff0483118215151615610d0457610d03610c52565b5b828202905092915050565b7f4e487b7100000000000000000000000000000000000000000000000000000000600052601260045260246000fd5b6000610d4982610b0f565b9150610d5483610b0f565b925082610d6457610d63610d0f565b5b828204905092915050565b6000610d7a82610b0f565b9150610d8583610b0f565b9250827fffffffffffffffffffffffffffffffffffffffffffffffffffffffffffffffff03821115610dba57610db9610c52565b5b828201905092915050565b610dce81610aa4565b82525050565b6000604082019050610de96000830185610dc5565b610df66020830184610b19565b9392505050565b60008115159050919050565b610e1281610dfd565b8114610e1d57600080fd5b50565b600081519050610e2f81610e09565b92915050565b600060208284031215610e4b57610e4a610a7f565b5b6000610e5984828501610e20565b91505092915050565b600082825260208201905092915050565b7f496e73756666696369656e742042616c616e6365210000000000000000000000600082015250565b6000610ea9601583610e62565b9150610eb482610e73565b602082019050919050565b60006020820190508181036000830152610ed881610e9c565b9050919050565b6000606082019050610ef46000830186610dc5565b610f016020830185610dc5565b610f0e6040830184610b19565b94935050505056fea2646970667358221220ee6f239bc453a8dd3cdc68caa51c8013a849f2cf0ea54e8a6d036894cf13795e64736f6c634300080c0033",
  "immutableReferences": {},
  "source": "// SPDX-License-Identifier: MIT\npragma solidity >=0.4.22 <0.9.0;\n\nimport './PTOKEN.sol';\nimport './rPTOKEN.sol';\n \ncontract StakingRewards {\n    PTOKEN public stakingToken;\n    RewardPawan public rewardsToken;\n\n    uint public rewardRate = 100;\n    uint public lastUpdateTime;\n    uint public rewardPerTokenStored;\n\n    mapping(address => uint) public userRewardPerTokenPaid;\n    mapping(address => uint) public rewards;\n\n    uint private _totalSupply;\n    mapping(address => uint) private _balances;\n\n    constructor(PTOKEN _stakingToken, RewardPawan _rewardsToken) {\n        stakingToken = _stakingToken;\n        rewardsToken = _rewardsToken;\n    }\n\n    function rewardPerToken() public view returns (uint) {\n        if (_totalSupply == 0) {\n            return rewardPerTokenStored;\n        }\n        return\n            rewardPerTokenStored +\n            (((block.timestamp - lastUpdateTime) * rewardRate * 1e18) / _totalSupply);\n    }\n\n    function earned(address account) public view returns (uint) {\n        return\n            ((_balances[account] *\n                (rewardPerToken() - userRewardPerTokenPaid[account])) / 1e18) +\n            rewards[account];\n    }\n\n    modifier updateReward(address account) {\n        rewardPerTokenStored = rewardPerToken();\n        lastUpdateTime = block.timestamp;\n\n        rewards[account] = earned(account);\n        userRewardPerTokenPaid[account] = rewardPerTokenStored;\n        _;\n    }\n\n    function stake(uint _amount) public updateReward(msg.sender) {\n        require(_balances[msg.sender] > _amount, \"Insufficient Balance!\");\n        _totalSupply += _amount;\n        _balances[msg.sender] += _amount;\n        stakingToken.transferFrom(msg.sender, address(this), _amount);\n    }\n\n    function withdraw(uint _amount) public updateReward(msg.sender) {\n        _totalSupply -= _amount;\n        _balances[msg.sender] -= _amount;\n        stakingToken.transfer(msg.sender, _amount);\n    }\n\n    function getReward() public payable updateReward(msg.sender) {\n        uint reward = rewards[msg.sender];\n        rewards[msg.sender] = 0;\n        rewardsToken.transfer(msg.sender, reward);\n    }\n}",
  "sourcePath": "/Users/pawanpandey/Documents/Solidity/PTOKEN/contracts/StakingRewards.sol",
  "compiler": {
    "name": "solc",
    "version": "0.8.12+commit.f00d7308.Emscripten.clang"
  },
  "schemaVersion": "3.4.6",
  "updatedAt": "2022-03-25T04:17:37.276Z",
  "devdoc": {
    "kind": "dev",
    "methods": {},
    "version": 1
  },
  "userdoc": {
    "kind": "user",
    "methods": {},
    "version": 1
  }
}